{
  "contractName": "Node",
  "abi": [
    {
      "inputs": [],
      "payable": false,
      "stateMutability": "nonpayable",
      "type": "constructor"
    },
    {
      "anonymous": false,
      "inputs": [
        {
          "indexed": true,
          "internalType": "uint256",
          "name": "_candidateId",
          "type": "uint256"
        }
      ],
      "name": "votedEvent",
      "type": "event"
    },
    {
      "constant": true,
      "inputs": [],
      "name": "siteCount",
      "outputs": [
        {
          "internalType": "uint256",
          "name": "",
          "type": "uint256"
        }
      ],
      "payable": false,
      "stateMutability": "view",
      "type": "function"
    },
    {
      "constant": true,
      "inputs": [
        {
          "internalType": "uint256",
          "name": "",
          "type": "uint256"
        }
      ],
      "name": "sites",
      "outputs": [
        {
          "internalType": "uint256",
          "name": "id",
          "type": "uint256"
        },
        {
          "internalType": "string",
          "name": "code",
          "type": "string"
        },
        {
          "internalType": "uint256",
          "name": "key",
          "type": "uint256"
        }
      ],
      "payable": false,
      "stateMutability": "view",
      "type": "function"
    },
    {
      "constant": false,
      "inputs": [
        {
          "internalType": "string",
          "name": "_name",
          "type": "string"
        }
      ],
      "name": "addSite",
      "outputs": [],
      "payable": false,
      "stateMutability": "nonpayable",
      "type": "function"
    },
    {
      "constant": false,
      "inputs": [
        {
          "internalType": "uint256",
          "name": "id",
          "type": "uint256"
        },
        {
          "internalType": "string",
          "name": "_name",
          "type": "string"
        }
      ],
      "name": "editSite",
      "outputs": [],
      "payable": false,
      "stateMutability": "nonpayable",
      "type": "function"
    }
  ],
  "bytecode": "0x608060405234801561001057600080fd5b50610527806100206000396000f3fe608060405234801561001057600080fd5b506004361061004c5760003560e01c8063089f8dab146100515780630fcfdd581461010c57806386f3561c146101d1578063d43caae014610286575b600080fd5b61010a6004803603602081101561006757600080fd5b810190808035906020019064010000000081111561008457600080fd5b82018360208201111561009657600080fd5b803590602001918460018302840111640100000000831117156100b857600080fd5b91908080601f016020809104026020016040519081016040528093929190818152602001838380828437600081840152601f19601f8201169050808301925050505050505091929192905050506102a4565b005b6101cf6004803603604081101561012257600080fd5b81019080803590602001909291908035906020019064010000000081111561014957600080fd5b82018360208201111561015b57600080fd5b8035906020019184600183028401116401000000008311171561017d57600080fd5b91908080601f016020809104026020016040519081016040528093929190818152602001838380828437600081840152601f19601f82011690508083019250505050505050919291929050505061031f565b005b6101fd600480360360208110156101e757600080fd5b8101908080359060200190929190505050610385565b6040518084815260200180602001838152602001828103825284818151815260200191508051906020019080838360005b8381101561024957808201518184015260208101905061022e565b50505050905090810190601f1680156102765780820380516001836020036101000a031916815260200191505b5094505050505060405180910390f35b61028e610447565b6040518082815260200191505060405180910390f35b600160008154809291906001019190505550604051806060016040528060015481526020018281526020016000815250600080600154815260200190815260200160002060008201518160000155602082015181600101908051906020019061030e92919061044d565b506040820151816002015590505050565b6040518060600160405280838152602001828152602001600081525060008084815260200190815260200160002060008201518160000155602082015181600101908051906020019061037392919061044d565b50604082015181600201559050505050565b6000602052806000526040600020600091509050806000015490806001018054600181600116156101000203166002900480601f0160208091040260200160405190810160405280929190818152602001828054600181600116156101000203166002900480156104375780601f1061040c57610100808354040283529160200191610437565b820191906000526020600020905b81548152906001019060200180831161041a57829003601f168201915b5050505050908060020154905083565b60015481565b828054600181600116156101000203166002900490600052602060002090601f016020900481019282601f1061048e57805160ff19168380011785556104bc565b828001600101855582156104bc579182015b828111156104bb5782518255916020019190600101906104a0565b5b5090506104c991906104cd565b5090565b6104ef91905b808211156104eb5760008160009055506001016104d3565b5090565b9056fea265627a7a72315820531fdc4cb2a4f2c0f9ce100842abb17de53dd6063f57e92f0d035a6cfad676dc64736f6c63430005100032",
  "source": "pragma solidity >=0.4.22;\r\n\r\ncontract Node {\r\n    struct Site {\r\n        uint id;\r\n        string code;\r\n        uint key;\r\n    }\r\n\r\n    mapping(uint => Site) public sites;\r\n    uint public siteCount;\r\n\r\n    event votedEvent (\r\n        uint indexed _candidateId\r\n    );\r\n\r\n    constructor() public {\r\n        // addSite(\"BRUH WHAT THE DOG DOIN\");\r\n        // addSite(\"lol?\");\r\n    }\r\n\r\n    function addSite(string memory _name) public {\r\n        siteCount++;\r\n        sites[siteCount] = Site(siteCount, _name, 0);\r\n    }\r\n\r\n    function editSite(uint id, string memory _name) public {\r\n        sites[id] = Site(id, _name, 0);\r\n    }\r\n}",
  "sourcePath": "D:/hackerman/github/DECweb/contracts/Node.sol",
  "compiler": {
    "name": "solc",
    "version": "0.5.16+commit.9c3226ce.Emscripten.clang"
  },
  "schemaVersion": "3.4.0",
  "updatedAt": "2021-05-28T04:20:14.563Z",
  "networkType": "ethereum",
  "devdoc": {
    "methods": {}
  },
  "userdoc": {
    "methods": {}
  }
}