{
  "contractName": "Node",
  "abi": [
    {
      "inputs": [],
      "payable": false,
      "stateMutability": "nonpayable",
      "type": "constructor"
    },
    {
      "anonymous": false,
      "inputs": [
        {
          "indexed": true,
          "internalType": "uint256",
          "name": "_candidateId",
          "type": "uint256"
        }
      ],
      "name": "votedEvent",
      "type": "event"
    },
    {
      "constant": true,
      "inputs": [],
      "name": "siteCount",
      "outputs": [
        {
          "internalType": "uint256",
          "name": "",
          "type": "uint256"
        }
      ],
      "payable": false,
      "stateMutability": "view",
      "type": "function"
    },
    {
      "constant": true,
      "inputs": [
        {
          "internalType": "uint256",
          "name": "",
          "type": "uint256"
        }
      ],
      "name": "sites",
      "outputs": [
        {
          "internalType": "uint256",
          "name": "id",
          "type": "uint256"
        },
        {
          "internalType": "string",
          "name": "code",
          "type": "string"
        },
        {
          "internalType": "uint256",
          "name": "key",
          "type": "uint256"
        }
      ],
      "payable": false,
      "stateMutability": "view",
      "type": "function"
    },
    {
      "constant": false,
      "inputs": [
        {
          "internalType": "uint256",
          "name": "key",
          "type": "uint256"
        },
        {
          "internalType": "string",
          "name": "_name",
          "type": "string"
        }
      ],
      "name": "addSite",
      "outputs": [],
      "payable": false,
      "stateMutability": "nonpayable",
      "type": "function"
    },
    {
      "constant": false,
      "inputs": [
        {
          "internalType": "uint256",
          "name": "id",
          "type": "uint256"
        },
        {
          "internalType": "uint256",
          "name": "key",
          "type": "uint256"
        },
        {
          "internalType": "string",
          "name": "_name",
          "type": "string"
        }
      ],
      "name": "editSite",
      "outputs": [],
      "payable": false,
      "stateMutability": "nonpayable",
      "type": "function"
    }
  ],
  "bytecode": "0x608060405234801561001057600080fd5b5061055d806100206000396000f3fe608060405234801561001057600080fd5b506004361061004c5760003560e01c806386f3561c14610051578063d43caae014610106578063eed4864914610124578063f417e756146101f3575b600080fd5b61007d6004803603602081101561006757600080fd5b81019080803590602001909291905050506102b8565b6040518084815260200180602001838152602001828103825284818151815260200191508051906020019080838360005b838110156100c95780820151818401526020810190506100ae565b50505050905090810190601f1680156100f65780820380516001836020036101000a031916815260200191505b5094505050505060405180910390f35b61010e61037a565b6040518082815260200191505060405180910390f35b6101f16004803603606081101561013a57600080fd5b8101908080359060200190929190803590602001909291908035906020019064010000000081111561016b57600080fd5b82018360208201111561017d57600080fd5b8035906020019184600183028401116401000000008311171561019f57600080fd5b91908080601f016020809104026020016040519081016040528093929190818152602001838380828437600081840152601f19601f820116905080830192505050505050509192919290505050610380565b005b6102b66004803603604081101561020957600080fd5b81019080803590602001909291908035906020019064010000000081111561023057600080fd5b82018360208201111561024257600080fd5b8035906020019184600183028401116401000000008311171561026457600080fd5b91908080601f016020809104026020016040519081016040528093929190818152602001838380828437600081840152601f19601f820116905080830192505050505050509192919290505050610408565b005b6000602052806000526040600020600091509050806000015490806001018054600181600116156101000203166002900480601f01602080910402602001604051908101604052809291908181526020018280546001816001161561010002031660029004801561036a5780601f1061033f5761010080835404028352916020019161036a565b820191906000526020600020905b81548152906001019060200180831161034d57829003601f168201915b5050505050908060020154905083565b60015481565b8160008085815260200190815260200160002060020154146103a157610403565b6040518060600160405280848152602001828152602001838152506000808581526020019081526020016000206000820151816000015560208201518160010190805190602001906103f4929190610483565b50604082015181600201559050505b505050565b60016000815480929190600101919050555060405180606001604052806001548152602001828152602001838152506000806001548152602001908152602001600020600082015181600001556020820151816001019080519060200190610471929190610483565b50604082015181600201559050505050565b828054600181600116156101000203166002900490600052602060002090601f016020900481019282601f106104c457805160ff19168380011785556104f2565b828001600101855582156104f2579182015b828111156104f15782518255916020019190600101906104d6565b5b5090506104ff9190610503565b5090565b61052591905b80821115610521576000816000905550600101610509565b5090565b9056fea265627a7a723158209403438da055e2d0f6b163b56682326696156e44cc7dfd97e23ce70194e006bb64736f6c63430005100032",
  "source": "pragma solidity >=0.4.22;\r\n\r\ncontract Node {\r\n    struct Site {\r\n        uint id;\r\n        string code;\r\n        uint key;\r\n    }\r\n\r\n    mapping(uint => Site) public sites;\r\n    uint public siteCount;\r\n\r\n    event votedEvent (\r\n        uint indexed _candidateId\r\n    );\r\n\r\n    constructor() public {\r\n        // addSite(\"BRUH WHAT THE DOG DOIN\");\r\n        // addSite(\"lol?\");\r\n    }\r\n\r\n    function addSite(uint key, string memory _name) public {\r\n        siteCount++;\r\n        sites[siteCount] = Site(siteCount, _name, key);\r\n    }\r\n\r\n    function editSite(uint id, uint key, string memory _name) public {\r\n        if(sites[id].key != key) {\r\n            //YOU BROKE THE RULES\r\n        }\r\n        else {\r\n            sites[id] = Site(id, _name, key);\r\n        }\r\n    }\r\n}",
  "sourcePath": "D:/hackerman/github/DECweb/contracts/Node.sol",
  "compiler": {
    "name": "solc",
    "version": "0.5.16+commit.9c3226ce.Emscripten.clang"
  },
  "schemaVersion": "3.4.0",
  "updatedAt": "2021-06-01T00:46:31.503Z",
  "networkType": "ethereum",
  "devdoc": {
    "methods": {}
  },
  "userdoc": {
    "methods": {}
  }
}