{
  "contractName": "Node",
  "abi": [
    {
      "inputs": [],
      "payable": false,
      "stateMutability": "nonpayable",
      "type": "constructor"
    },
    {
      "anonymous": false,
      "inputs": [
        {
          "indexed": true,
          "internalType": "uint256",
          "name": "_candidateId",
          "type": "uint256"
        }
      ],
      "name": "votedEvent",
      "type": "event"
    },
    {
      "constant": true,
      "inputs": [],
      "name": "siteCount",
      "outputs": [
        {
          "internalType": "uint256",
          "name": "",
          "type": "uint256"
        }
      ],
      "payable": false,
      "stateMutability": "view",
      "type": "function"
    },
    {
      "constant": true,
      "inputs": [
        {
          "internalType": "uint256",
          "name": "",
          "type": "uint256"
        }
      ],
      "name": "sites",
      "outputs": [
        {
          "internalType": "uint256",
          "name": "id",
          "type": "uint256"
        },
        {
          "internalType": "string",
          "name": "code",
          "type": "string"
        },
        {
          "internalType": "uint256",
          "name": "key",
          "type": "uint256"
        }
      ],
      "payable": false,
      "stateMutability": "view",
      "type": "function"
    },
    {
      "constant": false,
      "inputs": [
        {
          "internalType": "string",
          "name": "_name",
          "type": "string"
        }
      ],
      "name": "addSite",
      "outputs": [],
      "payable": false,
      "stateMutability": "nonpayable",
      "type": "function"
    }
  ],
  "bytecode": "0x608060405234801561001057600080fd5b506100556040518060400160405280601681526020017f4252554820574841542054484520444f4720444f494e0000000000000000000081525061009e60201b60201c565b6100996040518060400160405280600481526020017f6c6f6c3f0000000000000000000000000000000000000000000000000000000081525061009e60201b60201c565b6101be565b6001600081548092919060010191905055506040518060600160405280600154815260200182815260200160008152506000806001548152602001908152602001600020600082015181600001556020820151816001019080519060200190610108929190610119565b506040820151816002015590505050565b828054600181600116156101000203166002900490600052602060002090601f016020900481019282601f1061015a57805160ff1916838001178555610188565b82800160010185558215610188579182015b8281111561018757825182559160200191906001019061016c565b5b5090506101959190610199565b5090565b6101bb91905b808211156101b757600081600090555060010161019f565b5090565b90565b6103f1806101cd6000396000f3fe608060405234801561001057600080fd5b50600436106100415760003560e01c8063089f8dab1461004657806386f3561c14610101578063d43caae0146101b6575b600080fd5b6100ff6004803603602081101561005c57600080fd5b810190808035906020019064010000000081111561007957600080fd5b82018360208201111561008b57600080fd5b803590602001918460018302840111640100000000831117156100ad57600080fd5b91908080601f016020809104026020016040519081016040528093929190818152602001838380828437600081840152601f19601f8201169050808301925050505050505091929192905050506101d4565b005b61012d6004803603602081101561011757600080fd5b810190808035906020019092919050505061024f565b6040518084815260200180602001838152602001828103825284818151815260200191508051906020019080838360005b8381101561017957808201518184015260208101905061015e565b50505050905090810190601f1680156101a65780820380516001836020036101000a031916815260200191505b5094505050505060405180910390f35b6101be610311565b6040518082815260200191505060405180910390f35b600160008154809291906001019190505550604051806060016040528060015481526020018281526020016000815250600080600154815260200190815260200160002060008201518160000155602082015181600101908051906020019061023e929190610317565b506040820151816002015590505050565b6000602052806000526040600020600091509050806000015490806001018054600181600116156101000203166002900480601f0160208091040260200160405190810160405280929190818152602001828054600181600116156101000203166002900480156103015780601f106102d657610100808354040283529160200191610301565b820191906000526020600020905b8154815290600101906020018083116102e457829003601f168201915b5050505050908060020154905083565b60015481565b828054600181600116156101000203166002900490600052602060002090601f016020900481019282601f1061035857805160ff1916838001178555610386565b82800160010185558215610386579182015b8281111561038557825182559160200191906001019061036a565b5b5090506103939190610397565b5090565b6103b991905b808211156103b557600081600090555060010161039d565b5090565b9056fea265627a7a72315820c7d4a7f2850fe4a40dcaeaee8ef15498c9a4670dc78edd60e739bee06d5d47d864736f6c63430005100032",
  "source": "pragma solidity >=0.4.22;\r\n\r\ncontract Node {\r\n    struct Site {\r\n        uint id;\r\n        string code;\r\n        uint key;\r\n    }\r\n\r\n    mapping(uint => Site) public sites;\r\n    uint public siteCount;\r\n\r\n    event votedEvent (\r\n        uint indexed _candidateId\r\n    );\r\n\r\n    constructor() public {\r\n        addSite(\"BRUH WHAT THE DOG DOIN\");\r\n        addSite(\"lol?\");\r\n    }\r\n\r\n    function addSite(string memory _name) public {\r\n        siteCount++;\r\n        sites[siteCount] = Site(siteCount, _name, 0);\r\n    }\r\n}",
  "sourcePath": "D:/hackerman/github/DECweb/contracts/Node.sol",
  "compiler": {
    "name": "solc",
    "version": "0.5.16+commit.9c3226ce.Emscripten.clang"
  },
  "schemaVersion": "3.4.0",
  "updatedAt": "2021-04-26T02:31:50.605Z",
  "networkType": "ethereum",
  "devdoc": {
    "methods": {}
  },
  "userdoc": {
    "methods": {}
  }
}